{
  "contractName": "AaveAPY",
  "abi": [
    {
      "inputs": [
        {
          "internalType": "address",
          "name": "_lendingPoolAddressesProvider",
          "type": "address"
        }
      ],
      "stateMutability": "nonpayable",
      "type": "constructor"
    },
    {
      "anonymous": false,
      "inputs": [
        {
          "indexed": false,
          "internalType": "bool",
          "name": "success",
          "type": "bool"
        }
      ],
      "name": "DepositSuccesful",
      "type": "event"
    },
    {
      "anonymous": false,
      "inputs": [
        {
          "indexed": false,
          "internalType": "bool",
          "name": "success",
          "type": "bool"
        }
      ],
      "name": "WithdrawSuccesful",
      "type": "event"
    },
    {
      "inputs": [
        {
          "internalType": "uint256",
          "name": "amount",
          "type": "uint256"
        }
      ],
      "name": "deposit",
      "outputs": [],
      "stateMutability": "nonpayable",
      "type": "function"
    },
    {
      "inputs": [
        {
          "internalType": "uint256",
          "name": "amount",
          "type": "uint256"
        }
      ],
      "name": "withdraw",
      "outputs": [],
      "stateMutability": "nonpayable",
      "type": "function"
    }
  ],
  "bytecode": "0x6080604052734f96fe3b7a6cf9725f59d353f723c1bdb64ca6aa600260006101000a81548173ffffffffffffffffffffffffffffffffffffffff021916908373ffffffffffffffffffffffffffffffffffffffff1602179055506000600260146101000a81548161ffff021916908361ffff16021790555034801561008357600080fd5b506040516105bf3803806105bf833981810160405260208110156100a657600080fd5b8101908080519060200190929190505050806000806101000a81548173ffffffffffffffffffffffffffffffffffffffff021916908373ffffffffffffffffffffffffffffffffffffffff16021790555060008054906101000a900473ffffffffffffffffffffffffffffffffffffffff1673ffffffffffffffffffffffffffffffffffffffff16630261bf8b6040518163ffffffff1660e01b815260040160206040518083038186803b15801561015d57600080fd5b505afa158015610171573d6000803e3d6000fd5b505050506040513d602081101561018757600080fd5b8101908080519060200190929190505050600160006101000a81548173ffffffffffffffffffffffffffffffffffffffff021916908373ffffffffffffffffffffffffffffffffffffffff160217905550506103d7806101e86000396000f3fe608060405234801561001057600080fd5b50600436106100365760003560e01c80632e1a7d4d1461003b578063b6b55f2514610069575b600080fd5b6100676004803603602081101561005157600080fd5b8101908080359060200190929190505050610097565b005b6100956004803603602081101561007f57600080fd5b81019080803590602001909291905050506101e3565b005b600160009054906101000a900473ffffffffffffffffffffffffffffffffffffffff1673ffffffffffffffffffffffffffffffffffffffff166369328dec600260009054906101000a900473ffffffffffffffffffffffffffffffffffffffff1683336040518463ffffffff1660e01b8152600401808473ffffffffffffffffffffffffffffffffffffffff1681526020018381526020018273ffffffffffffffffffffffffffffffffffffffff1681526020019350505050602060405180830381600087803b15801561016a57600080fd5b505af115801561017e573d6000803e3d6000fd5b505050506040513d602081101561019457600080fd5b8101908080519060200190929190505050507f28ffc8a338d3cd535435b5a87d5065a405d9e8db9db016e2f6cd281850dea51a600160405180821515815260200191505060405180910390a150565b6000811161023c576040517f08c379a00000000000000000000000000000000000000000000000000000000081526004018080602001828103825260218152602001806103816021913960400191505060405180910390fd5b600160009054906101000a900473ffffffffffffffffffffffffffffffffffffffff1673ffffffffffffffffffffffffffffffffffffffff1663e8eda9df600260009054906101000a900473ffffffffffffffffffffffffffffffffffffffff168333600260149054906101000a900461ffff166040518563ffffffff1660e01b8152600401808573ffffffffffffffffffffffffffffffffffffffff1681526020018481526020018373ffffffffffffffffffffffffffffffffffffffff1681526020018261ffff168152602001945050505050600060405180830381600087803b15801561032b57600080fd5b505af115801561033f573d6000803e3d6000fd5b505050507fcb23a828471e5d6ebee7aa2fdfc85daabbaee3c60ceee826768534d5477b1c9b600160405180821515815260200191505060405180910390a15056fe416d6f756e74206e6565647320746f2062652067726561746572207468616e2030a264697066735822122004af29b948ceaa7003f48f2f798b26bf613add3055fae2bdf818a5884a43ed3564736f6c634300060c0033",
  "immutableReferences": {},
  "source": "pragma solidity ^0.6.0;\r\n\r\nimport \"@openzeppelin/contracts/token/ERC20/ERC20.sol\";\r\n\r\nimport \"@aave/protocol-v2/contracts/interfaces/ILendingPool.sol\";\r\nimport \"@aave/protocol-v2/contracts/interfaces/ILendingPoolAddressesProvider.sol\";\r\n\r\ncontract AaveAPY {\r\n    ILendingPoolAddressesProvider addressesProvider;\r\n    ILendingPool lendingPool;\r\n\r\n    // DAI Address on Kovan\r\n    ERC20 dai = ERC20(0x4F96Fe3b7A6Cf9725f59d353F723c1bDb64CA6Aa);\r\n    // Referral program for AAVE (https://docs.aave.com/developers/referral-program)\r\n    uint16 referralCode = 0;\r\n\r\n    // Constructor takes the address of the AAVE protocol addresses provider. Should not change once deployed.\r\n    // (https://docs.aave.com/developers/deployed-contracts)\r\n    constructor(address _lendingPoolAddressesProvider) public {\r\n        addressesProvider = ILendingPoolAddressesProvider(\r\n            _lendingPoolAddressesProvider\r\n        );\r\n        lendingPool = ILendingPool(addressesProvider.getLendingPool());\r\n    }\r\n\r\n    // Signals to the front end whether or not the deposit was successful\r\n    event DepositSuccesful(bool success);\r\n\r\n    function deposit(uint256 amount) external {\r\n        require(amount > 0, \"Amount needs to be greater than 0\");\r\n\r\n        // Transfer DAI to this contract\r\n        //dai.transferFrom(msg.sender, address(this), amount);\r\n\r\n        // Approve contract to deposit it into the lendingPool\r\n        //dai.increaseAllowance(address(lendingPool), amount);\r\n\r\n        // Deposit into lending pool\r\n        lendingPool.deposit(address(dai), amount, msg.sender, referralCode);\r\n\r\n        emit DepositSuccesful(true);\r\n    }\r\n\r\n    // Signals to the front end whether or not the withdraw was successful\r\n    event WithdrawSuccesful(bool success);\r\n\r\n    function withdraw(uint256 amount) external {\r\n        // Withdraw from lending pool\r\n        lendingPool.withdraw(address(dai), amount, msg.sender);\r\n\r\n        emit WithdrawSuccesful(true);\r\n    }\r\n}",
  "sourcePath": "C:/Users/rbajo/Lynx_Wallet/contracts/AaveAPY.sol",
  "compiler": {
    "name": "solc",
    "version": "0.6.12+commit.27d51765.Emscripten.clang"
  },
  "schemaVersion": "3.2.3",
  "updatedAt": "2021-04-27T01:00:59.196Z",
  "devdoc": {
    "kind": "dev",
    "methods": {},
    "version": 1
  },
  "userdoc": {
    "kind": "user",
    "methods": {},
    "version": 1
  }
}