{
  "contractName": "LynxFactory",
  "abi": [
    {
      "inputs": [
        {
          "internalType": "address",
          "name": "_lynxWalletImplementationAddress",
          "type": "address"
        }
      ],
      "stateMutability": "nonpayable",
      "type": "constructor"
    },
    {
      "anonymous": false,
      "inputs": [
        {
          "indexed": false,
          "internalType": "address",
          "name": "_cloneAddress",
          "type": "address"
        }
      ],
      "name": "LynxWalletCreated",
      "type": "event"
    },
    {
      "inputs": [
        {
          "internalType": "address",
          "name": "",
          "type": "address"
        }
      ],
      "name": "lynxWallets",
      "outputs": [
        {
          "internalType": "address",
          "name": "",
          "type": "address"
        }
      ],
      "stateMutability": "view",
      "type": "function",
      "constant": true
    },
    {
      "inputs": [],
      "name": "createLynxWallet",
      "outputs": [],
      "stateMutability": "nonpayable",
      "type": "function"
    },
    {
      "inputs": [],
      "name": "getLynxWalletAddress",
      "outputs": [
        {
          "internalType": "address",
          "name": "",
          "type": "address"
        }
      ],
      "stateMutability": "view",
      "type": "function",
      "constant": true
    }
  ],
  "bytecode": "0x60a06040527388757f2f99175387ab4c6a4b3067c77a695b0349600160006101000a81548173ffffffffffffffffffffffffffffffffffffffff021916908373ffffffffffffffffffffffffffffffffffffffff16021790555034801561006557600080fd5b506040516107623803806107628339818101604052602081101561008857600080fd5b81019080805190602001909291905050508073ffffffffffffffffffffffffffffffffffffffff1660808173ffffffffffffffffffffffffffffffffffffffff1660601b815250505060805160601c6106746100ee6000398061035852506106746000f3fe608060405234801561001057600080fd5b50600436106100415760003560e01c80637f0b937514610046578063a32fdb321461007a578063a8accd1e146100e8575b600080fd5b61004e6100f2565b604051808273ffffffffffffffffffffffffffffffffffffffff16815260200191505060405180910390f35b6100bc6004803603602081101561009057600080fd5b81019080803573ffffffffffffffffffffffffffffffffffffffff16906020019092919050505061023b565b604051808273ffffffffffffffffffffffffffffffffffffffff16815260200191505060405180910390f35b6100f061026e565b005b60008073ffffffffffffffffffffffffffffffffffffffff166000803373ffffffffffffffffffffffffffffffffffffffff1673ffffffffffffffffffffffffffffffffffffffff16815260200190815260200160002060009054906101000a900473ffffffffffffffffffffffffffffffffffffffff1673ffffffffffffffffffffffffffffffffffffffff1614156101d7576040517f08c379a00000000000000000000000000000000000000000000000000000000081526004018080602001828103825260228152602001806105f76022913960400191505060405180910390fd5b6000803373ffffffffffffffffffffffffffffffffffffffff1673ffffffffffffffffffffffffffffffffffffffff16815260200190815260200160002060009054906101000a900473ffffffffffffffffffffffffffffffffffffffff16905090565b60006020528060005260406000206000915054906101000a900473ffffffffffffffffffffffffffffffffffffffff1681565b600073ffffffffffffffffffffffffffffffffffffffff166000803373ffffffffffffffffffffffffffffffffffffffff1673ffffffffffffffffffffffffffffffffffffffff16815260200190815260200160002060009054906101000a900473ffffffffffffffffffffffffffffffffffffffff1673ffffffffffffffffffffffffffffffffffffffff1614610351576040517f08c379a00000000000000000000000000000000000000000000000000000000081526004018080602001828103825260268152602001806106196026913960400191505060405180910390fd5b600061037c7f00000000000000000000000000000000000000000000000000000000000000006104ee565b90508073ffffffffffffffffffffffffffffffffffffffff1663c4d66de8600160009054906101000a900473ffffffffffffffffffffffffffffffffffffffff166040518263ffffffff1660e01b8152600401808273ffffffffffffffffffffffffffffffffffffffff168152602001915050600060405180830381600087803b15801561040957600080fd5b505af115801561041d573d6000803e3d6000fd5b505050507fd78cdf0462f21f34c7fd6627428844c6c597bbdf523eed87a963085c4028007581604051808273ffffffffffffffffffffffffffffffffffffffff16815260200191505060405180910390a1806000803373ffffffffffffffffffffffffffffffffffffffff1673ffffffffffffffffffffffffffffffffffffffff16815260200190815260200160002060006101000a81548173ffffffffffffffffffffffffffffffffffffffff021916908373ffffffffffffffffffffffffffffffffffffffff16021790555050565b60006040517f3d602d80600a3d3981f3363d3d373d3d3d363d7300000000000000000000000081528260601b60148201527f5af43d82803e903d91602b57fd5bf3000000000000000000000000000000000060288201526037816000f0915050600073ffffffffffffffffffffffffffffffffffffffff168173ffffffffffffffffffffffffffffffffffffffff1614156105f1576040517f08c379a00000000000000000000000000000000000000000000000000000000081526004018080602001828103825260168152602001807f455243313136373a20637265617465206661696c65640000000000000000000081525060200191505060405180910390fd5b91905056fe5573657220686173206e6f7420637265617465642061206c796e782077616c6c6574557365722068617320616c726561647920637265617465642061206c796e782077616c6c6574a26469706673582212208c4f388d0b73afe1bfa5e8252490ba226d5cff731f5dbe4c3ac18fc062dbb48964736f6c634300060c0033",
  "immutableReferences": {
    "13": [
      {
        "length": 32,
        "start": 856
      }
    ]
  },
  "source": "pragma solidity ^0.6.0;\r\n\r\nimport \"./LynxWallet.sol\";\r\nimport \"@openzeppelin/contracts/proxy/Clones.sol\";\r\n\r\ncontract LynxFactory {\r\n    event LynxWalletCreated(\r\n        address _cloneAddress\r\n    );\r\n\r\n    mapping (address=>address) public lynxWallets;\r\n    address immutable lynxWalletImplementationAddress;\r\n    address lendingPoolAddressesProvider = 0x88757f2f99175387aB4C6a4b3067c77A695b0349; // Kovan address\r\n\r\n    constructor(address _lynxWalletImplementationAddress) public{\r\n        lynxWalletImplementationAddress = _lynxWalletImplementationAddress;\r\n    }\r\n\r\n    function createLynxWallet() external {\r\n        require(lynxWallets[msg.sender] == address(0), \"User has already created a lynx wallet\");\r\n        address cloneAddress = Clones.clone(lynxWalletImplementationAddress);\r\n        LynxWallet(cloneAddress).initialize(lendingPoolAddressesProvider);\r\n\r\n        emit LynxWalletCreated(cloneAddress);\r\n        lynxWallets[msg.sender] = cloneAddress;\r\n    }\r\n\r\n    function getLynxWalletAddress() external view returns (address) {\r\n        require(lynxWallets[msg.sender] != address(0), \"User has not created a lynx wallet\");\r\n        return lynxWallets[msg.sender];\r\n    }\r\n}",
  "sourcePath": "C:/Users/rbajo/Lynx_Wallet_Test/contracts/LynxFactory.sol",
  "compiler": {
    "name": "solc",
    "version": "0.6.12+commit.27d51765.Emscripten.clang"
  },
  "schemaVersion": "3.2.3",
  "updatedAt": "2021-06-08T01:16:12.851Z",
  "networkType": "ethereum",
  "devdoc": {
    "kind": "dev",
    "methods": {},
    "version": 1
  },
  "userdoc": {
    "kind": "user",
    "methods": {},
    "version": 1
  }
}