{
  "contractName": "LynxWallet",
  "abi": [
    {
      "anonymous": false,
      "inputs": [
        {
          "indexed": true,
          "internalType": "address",
          "name": "_from",
          "type": "address"
        },
        {
          "indexed": true,
          "internalType": "address",
          "name": "_assetAddress",
          "type": "address"
        },
        {
          "indexed": false,
          "internalType": "uint256",
          "name": "_depositAmount",
          "type": "uint256"
        },
        {
          "indexed": false,
          "internalType": "uint256",
          "name": "_anynumber",
          "type": "uint256"
        }
      ],
      "name": "LogDeposit",
      "type": "event"
    },
    {
      "anonymous": false,
      "inputs": [
        {
          "indexed": true,
          "internalType": "address",
          "name": "_to",
          "type": "address"
        },
        {
          "indexed": true,
          "internalType": "address",
          "name": "_assetAddress",
          "type": "address"
        },
        {
          "indexed": false,
          "internalType": "uint256",
          "name": "_withdrawAmount",
          "type": "uint256"
        }
      ],
      "name": "LogWithdraw",
      "type": "event"
    },
    {
      "inputs": [
        {
          "internalType": "address",
          "name": "_lendingPoolAddressesProvider",
          "type": "address"
        }
      ],
      "name": "initialize",
      "outputs": [],
      "stateMutability": "nonpayable",
      "type": "function"
    },
    {
      "inputs": [
        {
          "internalType": "uint256",
          "name": "_amount",
          "type": "uint256"
        }
      ],
      "name": "doDeposit",
      "outputs": [],
      "stateMutability": "nonpayable",
      "type": "function"
    },
    {
      "inputs": [
        {
          "internalType": "uint256",
          "name": "_amount",
          "type": "uint256"
        }
      ],
      "name": "doWithdraw",
      "outputs": [],
      "stateMutability": "nonpayable",
      "type": "function"
    }
  ],
  "bytecode": "0x608060405273ff795577d9ac8bd7d90ee22b6c1703490b6512fd600060026101000a81548173ffffffffffffffffffffffffffffffffffffffff021916908373ffffffffffffffffffffffffffffffffffffffff16021790555034801561006557600080fd5b50610c72806100756000396000f3fe608060405234801561001057600080fd5b50600436106100415760003560e01c8063010f59d714610046578063c4d66de814610074578063d39b34ae146100b8575b600080fd5b6100726004803603602081101561005c57600080fd5b81019080803590602001909291905050506100e6565b005b6100b66004803603602081101561008a57600080fd5b81019080803573ffffffffffffffffffffffffffffffffffffffff169060200190929190505050610305565b005b6100e4600480360360208110156100ce57600080fd5b8101908080359060200190929190505050610445565b005b6000600160009054906101000a900473ffffffffffffffffffffffffffffffffffffffff1673ffffffffffffffffffffffffffffffffffffffff16630261bf8b6040518163ffffffff1660e01b815260040160206040518083038186803b15801561015057600080fd5b505afa158015610164573d6000803e3d6000fd5b505050506040513d602081101561017a57600080fd5b810190808051906020019092919050505090508073ffffffffffffffffffffffffffffffffffffffff166369328dec600060029054906101000a900473ffffffffffffffffffffffffffffffffffffffff1684306040518463ffffffff1660e01b8152600401808473ffffffffffffffffffffffffffffffffffffffff1681526020018381526020018273ffffffffffffffffffffffffffffffffffffffff1681526020019350505050602060405180830381600087803b15801561023e57600080fd5b505af1158015610252573d6000803e3d6000fd5b505050506040513d602081101561026857600080fd5b810190808051906020019092919050505050600060029054906101000a900473ffffffffffffffffffffffffffffffffffffffff1673ffffffffffffffffffffffffffffffffffffffff163373ffffffffffffffffffffffffffffffffffffffff167f9207361cc2a04b9c7a06691df1eb87c6a63957ae88bf01d0d18c81e3d1272099846040518082815260200191505060405180910390a35050565b600060019054906101000a900460ff16806103245750610323610bc6565b5b8061033a575060008054906101000a900460ff16155b61038f576040517f08c379a000000000000000000000000000000000000000000000000000000000815260040180806020018281038252602e815260200180610beb602e913960400191505060405180910390fd5b60008060019054906101000a900460ff1615905080156103df576001600060016101000a81548160ff02191690831515021790555060016000806101000a81548160ff0219169083151502179055505b81600160006101000a81548173ffffffffffffffffffffffffffffffffffffffff021916908373ffffffffffffffffffffffffffffffffffffffff16021790555080156104415760008060016101000a81548160ff0219169083151502179055505b5050565b6000811161049e576040517f08c379a0000000000000000000000000000000000000000000000000000000008152600401808060200182810382526024815260200180610c196024913960400191505060405180910390fd5b6000808060029054906101000a900473ffffffffffffffffffffffffffffffffffffffff1673ffffffffffffffffffffffffffffffffffffffff1663dd62ed3e33306040518363ffffffff1660e01b8152600401808373ffffffffffffffffffffffffffffffffffffffff1681526020018273ffffffffffffffffffffffffffffffffffffffff1681526020019250505060206040518083038186803b15801561054757600080fd5b505afa15801561055b573d6000803e3d6000fd5b505050506040513d602081101561057157600080fd5b81019080805190602001909291905050509050828110156105fa576040517f08c379a00000000000000000000000000000000000000000000000000000000081526004018080602001828103825260148152602001807f506c6561736520617070726f766520666972737400000000000000000000000081525060200191505060405180910390fd5b600060029054906101000a900473ffffffffffffffffffffffffffffffffffffffff1673ffffffffffffffffffffffffffffffffffffffff166323b872dd3330866040518463ffffffff1660e01b8152600401808473ffffffffffffffffffffffffffffffffffffffff1681526020018373ffffffffffffffffffffffffffffffffffffffff1681526020018281526020019350505050602060405180830381600087803b1580156106ab57600080fd5b505af11580156106bf573d6000803e3d6000fd5b505050506040513d60208110156106d557600080fd5b8101908080519060200190929190505050506000600160009054906101000a900473ffffffffffffffffffffffffffffffffffffffff1673ffffffffffffffffffffffffffffffffffffffff16630261bf8b6040518163ffffffff1660e01b815260040160206040518083038186803b15801561075157600080fd5b505afa158015610765573d6000803e3d6000fd5b505050506040513d602081101561077b57600080fd5b810190808051906020019092919050505090506000600160009054906101000a900473ffffffffffffffffffffffffffffffffffffffff1673ffffffffffffffffffffffffffffffffffffffff16630261bf8b6040518163ffffffff1660e01b815260040160206040518083038186803b1580156107f857600080fd5b505afa15801561080c573d6000803e3d6000fd5b505050506040513d602081101561082257600080fd5b8101908080519060200190929190505050905060008060029054906101000a900473ffffffffffffffffffffffffffffffffffffffff1673ffffffffffffffffffffffffffffffffffffffff1663dd62ed3e30846040518363ffffffff1660e01b8152600401808373ffffffffffffffffffffffffffffffffffffffff1681526020018273ffffffffffffffffffffffffffffffffffffffff1681526020019250505060206040518083038186803b1580156108dd57600080fd5b505afa1580156108f1573d6000803e3d6000fd5b505050506040513d602081101561090757600080fd5b81019080805190602001909291905050509050600060029054906101000a900473ffffffffffffffffffffffffffffffffffffffff1673ffffffffffffffffffffffffffffffffffffffff1663095ea7b383886040518363ffffffff1660e01b8152600401808373ffffffffffffffffffffffffffffffffffffffff16815260200182815260200192505050602060405180830381600087803b1580156109ad57600080fd5b505af11580156109c1573d6000803e3d6000fd5b505050506040513d60208110156109d757600080fd5b8101908080519060200190929190505050610a5a576040517f08c379a00000000000000000000000000000000000000000000000000000000081526004018080602001828103825260128152602001807f417070726f766520686173206661696c6564000000000000000000000000000081525060200191505060405180910390fd5b8273ffffffffffffffffffffffffffffffffffffffff1663e8eda9df600060029054906101000a900473ffffffffffffffffffffffffffffffffffffffff168830896040518563ffffffff1660e01b8152600401808573ffffffffffffffffffffffffffffffffffffffff1681526020018481526020018373ffffffffffffffffffffffffffffffffffffffff1681526020018261ffff168152602001945050505050600060405180830381600087803b158015610b1757600080fd5b505af1158015610b2b573d6000803e3d6000fd5b50505050600060029054906101000a900473ffffffffffffffffffffffffffffffffffffffff1673ffffffffffffffffffffffffffffffffffffffff163373ffffffffffffffffffffffffffffffffffffffff167f4e3e4894f24a7c50bcb21d1ef785e34688bee05663c55d822eed7cefc25331238884604051808381526020018281526020019250505060405180910390a3505050505050565b6000610bd130610bd7565b15905090565b600080823b90506000811191505091905056fe496e697469616c697a61626c653a20636f6e747261637420697320616c726561647920696e697469616c697a6564416d6f756e74206e6565647320746f2062652067726561746572207468616e2030212121a26469706673582212203dc7430f99b67033e45725cbe91efddda0b95430ae5e58078f5ee9b1e51f9e1964736f6c634300060c0033",
  "immutableReferences": {},
  "source": "pragma solidity ^0.6.6;\r\n\r\nimport \"@openzeppelin/contracts/proxy/Initializable.sol\";\r\nimport \"@openzeppelin/contracts/token/ERC20/ERC20.sol\";\r\nimport \"@openzeppelin/contracts/token/ERC20/SafeERC20.sol\";\r\nimport \"@openzeppelin/contracts/access/Ownable.sol\";\r\nimport \"@aave/protocol-v2/contracts/interfaces/ILendingPoolAddressesProvider.sol\";\r\nimport \"@aave/protocol-v2/contracts/interfaces/ILendingPool.sol\";\r\n\r\ncontract LynxWallet is Initializable{\r\n     using SafeMath for uint256;\r\n\r\n    event LogDeposit(\r\n        address indexed _from,\r\n        address indexed _assetAddress,\r\n        uint256 _depositAmount,\r\n        uint256 _anynumber\r\n    );\r\n\r\n    event LogWithdraw(\r\n        address indexed _to,\r\n        address indexed _assetAddress,\r\n        uint256 _withdrawAmount\r\n    );\r\n    // Kovan Dai address\r\n    address daiAddress = 0xFf795577d9AC8bD7D90Ee22b6C1703490b6512FD;\r\n\r\n    ILendingPoolAddressesProvider addressesProvider;\r\n    function initialize(\r\n        address _lendingPoolAddressesProvider\r\n    ) external initializer {\r\n         addressesProvider = ILendingPoolAddressesProvider(_lendingPoolAddressesProvider);\r\n    }\r\n\r\n    function doDeposit(uint256 _amount) external {\r\n        require(_amount > 0, \"Amount needs to be greater than 0!!!\");\r\n        uint16 referralCode = 0;\r\n\r\n        uint256 allowance = ERC20(daiAddress).allowance(msg.sender, address(this));\r\n        require(allowance >= _amount, \"Please approve first\"); \r\n\r\n        //transfer user's DAI to contract\r\n        ERC20(daiAddress).transferFrom(msg.sender, address(this), _amount); \r\n\r\n        ILendingPool lendingPool = ILendingPool(addressesProvider.getLendingPool());\r\n\r\n        //approve first\r\n        address lendingPoolAddress = addressesProvider.getLendingPool();\r\n        uint256 allowanceLendingPool = ERC20(daiAddress).allowance(address(this), lendingPoolAddress); \r\n\r\n        require(ERC20(daiAddress).approve(lendingPoolAddress, _amount), \"Approve has failed\");\r\n\r\n        // Deposit into lending pool\r\n        lendingPool.deposit(daiAddress, _amount, address(this), referralCode);\r\n\r\n        emit LogDeposit(msg.sender, daiAddress, _amount, allowanceLendingPool);\r\n    }\r\n\r\n    function doWithdraw(uint256 _amount) external {\r\n\r\n        ILendingPool lendingPool = ILendingPool(addressesProvider.getLendingPool());\r\n \r\n        // Withdraw from lending pool\r\n        lendingPool.withdraw(daiAddress, _amount, address(this));\r\n\r\n        emit LogWithdraw(msg.sender, daiAddress, _amount);\r\n    }\r\n}",
  "sourcePath": "C:\\Users\\rbajo\\Lynx_Wallet_Test\\contracts\\LynxWallet.sol",
  "compiler": {
    "name": "solc",
    "version": "0.6.12+commit.27d51765.Emscripten.clang"
  },
  "schemaVersion": "3.2.3",
  "updatedAt": "2021-05-27T00:43:32.172Z",
  "devdoc": {
    "kind": "dev",
    "methods": {},
    "version": 1
  },
  "userdoc": {
    "kind": "user",
    "methods": {},
    "version": 1
  }
}