{
  "contractName": "LynxFactory",
  "abi": [
    {
      "inputs": [
        {
          "internalType": "address",
          "name": "_lynxWalletImplementationAddress",
          "type": "address"
        }
      ],
      "stateMutability": "nonpayable",
      "type": "constructor"
    },
    {
      "anonymous": false,
      "inputs": [
        {
          "indexed": false,
          "internalType": "address",
          "name": "_cloneAddress",
          "type": "address"
        }
      ],
      "name": "LynxWalletCreated",
      "type": "event"
    },
    {
      "inputs": [
        {
          "internalType": "uint256",
          "name": "",
          "type": "uint256"
        }
      ],
      "name": "lynxWalletClones",
      "outputs": [
        {
          "internalType": "contract LynxWallet",
          "name": "",
          "type": "address"
        }
      ],
      "stateMutability": "view",
      "type": "function"
    },
    {
      "inputs": [
        {
          "internalType": "address",
          "name": "_lendingPoolAddressesProvider",
          "type": "address"
        }
      ],
      "name": "createLynxWalletClone",
      "outputs": [],
      "stateMutability": "nonpayable",
      "type": "function"
    },
    {
      "inputs": [],
      "name": "getLynxWalletClones",
      "outputs": [
        {
          "internalType": "contract LynxWallet[]",
          "name": "",
          "type": "address[]"
        }
      ],
      "stateMutability": "view",
      "type": "function"
    },
    {
      "inputs": [],
      "name": "getImplementationAddress",
      "outputs": [
        {
          "internalType": "address",
          "name": "",
          "type": "address"
        }
      ],
      "stateMutability": "view",
      "type": "function"
    }
  ],
  "bytecode": "0x60a060405234801561001057600080fd5b506040516105b03803806105b08339818101604052602081101561003357600080fd5b81019080805190602001909291905050508073ffffffffffffffffffffffffffffffffffffffff1660808173ffffffffffffffffffffffffffffffffffffffff1660601b815250505060805160601c61051261009e60003980610184528061023d52506105126000f3fe608060405234801561001057600080fd5b506004361061004c5760003560e01c80630cbcae701461005157806393fb50d414610085578063a55b0080146100e4578063c3627d6614610128575b600080fd5b610059610180565b604051808273ffffffffffffffffffffffffffffffffffffffff16815260200191505060405180910390f35b61008d6101a8565b6040518080602001828103825283818151815260200191508051906020019060200280838360005b838110156100d05780820151818401526020810190506100b5565b505050509050019250505060405180910390f35b610126600480360360208110156100fa57600080fd5b81019080803573ffffffffffffffffffffffffffffffffffffffff169060200190929190505050610236565b005b6101546004803603602081101561013e57600080fd5b8101908080359060200190929190505050610398565b604051808273ffffffffffffffffffffffffffffffffffffffff16815260200191505060405180910390f35b60007f0000000000000000000000000000000000000000000000000000000000000000905090565b6060600080548060200260200160405190810160405280929190818152602001828054801561022c57602002820191906000526020600020905b8160009054906101000a900473ffffffffffffffffffffffffffffffffffffffff1673ffffffffffffffffffffffffffffffffffffffff16815260200190600101908083116101e2575b5050505050905090565b60006102617f00000000000000000000000000000000000000000000000000000000000000006103d4565b90508073ffffffffffffffffffffffffffffffffffffffff1663c4d66de8836040518263ffffffff1660e01b8152600401808273ffffffffffffffffffffffffffffffffffffffff168152602001915050600060405180830381600087803b1580156102cc57600080fd5b505af11580156102e0573d6000803e3d6000fd5b505050507fd78cdf0462f21f34c7fd6627428844c6c597bbdf523eed87a963085c4028007581604051808273ffffffffffffffffffffffffffffffffffffffff16815260200191505060405180910390a16000819080600181540180825580915050600190039060005260206000200160009091909190916101000a81548173ffffffffffffffffffffffffffffffffffffffff021916908373ffffffffffffffffffffffffffffffffffffffff1602179055505050565b600081815481106103a557fe5b906000526020600020016000915054906101000a900473ffffffffffffffffffffffffffffffffffffffff1681565b60006040517f3d602d80600a3d3981f3363d3d373d3d3d363d7300000000000000000000000081528260601b60148201527f5af43d82803e903d91602b57fd5bf3000000000000000000000000000000000060288201526037816000f0915050600073ffffffffffffffffffffffffffffffffffffffff168173ffffffffffffffffffffffffffffffffffffffff1614156104d7576040517f08c379a00000000000000000000000000000000000000000000000000000000081526004018080602001828103825260168152602001807f455243313136373a20637265617465206661696c65640000000000000000000081525060200191505060405180910390fd5b91905056fea2646970667358221220a7c5e4128aec610fe939faa03f952b5659ed6caed07df8164eeb95c5d1a45e3064736f6c634300060c0033",
  "immutableReferences": {
    "265": [
      {
        "length": 32,
        "start": 388
      },
      {
        "length": 32,
        "start": 573
      }
    ]
  },
  "source": "pragma solidity ^0.6.6;\r\n\r\nimport \"./LynxWallet.sol\";\r\nimport \"@openzeppelin/contracts/proxy/Clones.sol\";\r\n\r\ncontract LynxFactory {\r\n    event LynxWalletCreated(\r\n        address _cloneAddress\r\n    );\r\n\r\n    LynxWallet[] public lynxWalletClones;\r\n    address immutable lynxWalletImplementationAddress;\r\n\r\n    constructor(address _lynxWalletImplementationAddress) public{\r\n        lynxWalletImplementationAddress = _lynxWalletImplementationAddress;\r\n    }\r\n\r\n    function createLynxWalletClone(address _lendingPoolAddressesProvider) external {\r\n        address cloneAddress = Clones.clone(lynxWalletImplementationAddress);\r\n        LynxWallet(cloneAddress).initialize(_lendingPoolAddressesProvider);\r\n\r\n        emit LynxWalletCreated(cloneAddress);\r\n        lynxWalletClones.push(LynxWallet(cloneAddress));\r\n    }\r\n\r\n    function getLynxWalletClones() external view returns(LynxWallet[] memory) {\r\n        return lynxWalletClones;\r\n    }\r\n    function getImplementationAddress() external view returns (address) {\r\n        return lynxWalletImplementationAddress;\r\n    }\r\n}",
  "sourcePath": "C:/Users/rbajo/Lynx_Wallet_Test/contracts/LynxFactory.sol",
  "compiler": {
    "name": "solc",
    "version": "0.6.12+commit.27d51765.Emscripten.clang"
  },
  "schemaVersion": "3.2.3",
  "updatedAt": "2021-05-27T00:43:32.163Z",
  "devdoc": {
    "kind": "dev",
    "methods": {},
    "version": 1
  },
  "userdoc": {
    "kind": "user",
    "methods": {},
    "version": 1
  }
}