{
  "contractName": "LynxWallet",
  "abi": [
    {
      "anonymous": false,
      "inputs": [
        {
          "indexed": true,
          "internalType": "address",
          "name": "_from",
          "type": "address"
        },
        {
          "indexed": true,
          "internalType": "address",
          "name": "_assetAddress",
          "type": "address"
        },
        {
          "indexed": false,
          "internalType": "uint256",
          "name": "_depositAmount",
          "type": "uint256"
        }
      ],
      "name": "LogDeposit",
      "type": "event"
    },
    {
      "anonymous": false,
      "inputs": [
        {
          "indexed": true,
          "internalType": "address",
          "name": "_to",
          "type": "address"
        },
        {
          "indexed": true,
          "internalType": "address",
          "name": "_assetAddress",
          "type": "address"
        },
        {
          "indexed": false,
          "internalType": "uint256",
          "name": "_withdrawAmount",
          "type": "uint256"
        }
      ],
      "name": "LogWithdraw",
      "type": "event"
    },
    {
      "inputs": [
        {
          "internalType": "address",
          "name": "_lendingPoolAddressesProvider",
          "type": "address"
        }
      ],
      "name": "initialize",
      "outputs": [],
      "stateMutability": "nonpayable",
      "type": "function"
    },
    {
      "inputs": [
        {
          "internalType": "uint256",
          "name": "_amount",
          "type": "uint256"
        },
        {
          "internalType": "address",
          "name": "_userAddress",
          "type": "address"
        }
      ],
      "name": "doDeposit",
      "outputs": [],
      "stateMutability": "nonpayable",
      "type": "function"
    },
    {
      "inputs": [
        {
          "internalType": "uint256",
          "name": "_amount",
          "type": "uint256"
        },
        {
          "internalType": "address",
          "name": "_userAddress",
          "type": "address"
        }
      ],
      "name": "doWithdraw",
      "outputs": [],
      "stateMutability": "nonpayable",
      "type": "function"
    },
    {
      "inputs": [],
      "name": "getUserBalance",
      "outputs": [
        {
          "internalType": "uint256",
          "name": "",
          "type": "uint256"
        }
      ],
      "stateMutability": "view",
      "type": "function",
      "constant": true
    }
  ],
  "bytecode": "0x608060405273ff795577d9ac8bd7d90ee22b6c1703490b6512fd600060026101000a81548173ffffffffffffffffffffffffffffffffffffffff021916908373ffffffffffffffffffffffffffffffffffffffff16021790555034801561006557600080fd5b50611188806100756000396000f3fe608060405234801561001057600080fd5b506004361061004c5760003560e01c8063358033a514610051578063b7013dc11461006d578063c4d66de81461008b578063d188637d146100a7575b600080fd5b61006b60048036038101906100669190610d01565b6100c3565b005b6100756102d2565b6040516100829190610fcd565b60405180910390f35b6100a560048036038101906100a09190610c33565b61043e565b005b6100c160048036038101906100bc9190610d01565b610648565b005b600260009054906101000a900473ffffffffffffffffffffffffffffffffffffffff1673ffffffffffffffffffffffffffffffffffffffff166369328dec600060029054906101000a900473ffffffffffffffffffffffffffffffffffffffff1684306040518463ffffffff1660e01b815260040161014493929190610ef1565b602060405180830381600087803b15801561015e57600080fd5b505af1158015610172573d6000803e3d6000fd5b505050506040513d601f19601f820116820180604052508101906101969190610cd8565b50600060029054906101000a900473ffffffffffffffffffffffffffffffffffffffff1673ffffffffffffffffffffffffffffffffffffffff1663a9059cbb82846040518363ffffffff1660e01b81526004016101f4929190610ec8565b602060405180830381600087803b15801561020e57600080fd5b505af1158015610222573d6000803e3d6000fd5b505050506040513d601f19601f820116820180604052508101906102469190610c85565b50600060029054906101000a900473ffffffffffffffffffffffffffffffffffffffff1673ffffffffffffffffffffffffffffffffffffffff168173ffffffffffffffffffffffffffffffffffffffff167f9207361cc2a04b9c7a06691df1eb87c6a63957ae88bf01d0d18c81e3d1272099846040516102c69190610fcd565b60405180910390a35050565b600080600260009054906101000a900473ffffffffffffffffffffffffffffffffffffffff1673ffffffffffffffffffffffffffffffffffffffff166335ea6a75600060029054906101000a900473ffffffffffffffffffffffffffffffffffffffff166040518263ffffffff1660e01b81526004016103529190610e76565b6101806040518083038186803b15801561036b57600080fd5b505afa15801561037f573d6000803e3d6000fd5b505050506040513d601f19601f820116820180604052508101906103a39190610cae565b60e00151905060008173ffffffffffffffffffffffffffffffffffffffff166370a08231306040518263ffffffff1660e01b81526004016103e49190610e76565b60206040518083038186803b1580156103fc57600080fd5b505afa158015610410573d6000803e3d6000fd5b505050506040513d601f19601f820116820180604052508101906104349190610cd8565b9050809250505090565b600060019054906101000a900460ff168061045d575061045c610a11565b5b80610473575060008054906101000a900460ff16155b6104b2576040517f08c379a00000000000000000000000000000000000000000000000000000000081526004016104a990610f6d565b60405180910390fd5b60008060019054906101000a900460ff161590508015610502576001600060016101000a81548160ff02191690831515021790555060016000806101000a81548160ff0219169083151502179055505b81600160006101000a81548173ffffffffffffffffffffffffffffffffffffffff021916908373ffffffffffffffffffffffffffffffffffffffff160217905550600160009054906101000a900473ffffffffffffffffffffffffffffffffffffffff1673ffffffffffffffffffffffffffffffffffffffff16630261bf8b6040518163ffffffff1660e01b815260040160206040518083038186803b1580156105ab57600080fd5b505afa1580156105bf573d6000803e3d6000fd5b505050506040513d601f19601f820116820180604052508101906105e39190610c5c565b600260006101000a81548173ffffffffffffffffffffffffffffffffffffffff021916908373ffffffffffffffffffffffffffffffffffffffff16021790555080156106445760008060016101000a81548160ff0219169083151502179055505b5050565b6000821161068b576040517f08c379a000000000000000000000000000000000000000000000000000000000815260040161068290610f8d565b60405180910390fd5b600060029054906101000a900473ffffffffffffffffffffffffffffffffffffffff1673ffffffffffffffffffffffffffffffffffffffff166323b872dd8230856040518463ffffffff1660e01b81526004016106ea93929190610e91565b602060405180830381600087803b15801561070457600080fd5b505af1158015610718573d6000803e3d6000fd5b505050506040513d601f19601f8201168201806040525081019061073c9190610c85565b506000600160009054906101000a900473ffffffffffffffffffffffffffffffffffffffff1673ffffffffffffffffffffffffffffffffffffffff16630261bf8b6040518163ffffffff1660e01b815260040160206040518083038186803b1580156107a757600080fd5b505afa1580156107bb573d6000803e3d6000fd5b505050506040513d601f19601f820116820180604052508101906107df9190610c5c565b9050600060029054906101000a900473ffffffffffffffffffffffffffffffffffffffff1673ffffffffffffffffffffffffffffffffffffffff1663095ea7b382856040518363ffffffff1660e01b815260040161083e929190610ec8565b602060405180830381600087803b15801561085857600080fd5b505af115801561086c573d6000803e3d6000fd5b505050506040513d601f19601f820116820180604052508101906108909190610c85565b6108cf576040517f08c379a00000000000000000000000000000000000000000000000000000000081526004016108c690610fad565b60405180910390fd5b600260009054906101000a900473ffffffffffffffffffffffffffffffffffffffff1673ffffffffffffffffffffffffffffffffffffffff1663e8eda9df600060029054906101000a900473ffffffffffffffffffffffffffffffffffffffff16853060006040518563ffffffff1660e01b81526004016109539493929190610f28565b600060405180830381600087803b15801561096d57600080fd5b505af1158015610981573d6000803e3d6000fd5b50505050600060029054906101000a900473ffffffffffffffffffffffffffffffffffffffff1673ffffffffffffffffffffffffffffffffffffffff168273ffffffffffffffffffffffffffffffffffffffff167f5c8d1f77b6233deba47b516a690497af4c7f1be42a768e331832cb02b3400d6b85604051610a049190610fcd565b60405180910390a3505050565b6000610a1c30610a22565b15905090565b600080823b905060008111915050919050565b600081359050610a44816110c8565b92915050565b600081519050610a59816110c8565b92915050565b600081519050610a6e816110df565b92915050565b600060208284031215610a8657600080fd5b610a906020610fe8565b90506000610aa084828501610bf4565b60008301525092915050565b60006101808284031215610abf57600080fd5b610aca610180610fe8565b90506000610ada84828501610a74565b6000830152506020610aee84828501610bca565b6020830152506040610b0284828501610bca565b6040830152506060610b1684828501610bca565b6060830152506080610b2a84828501610bca565b60808301525060a0610b3e84828501610bca565b60a08301525060c0610b5284828501610c09565b60c08301525060e0610b6684828501610a4a565b60e083015250610100610b7b84828501610a4a565b61010083015250610120610b9184828501610a4a565b61012083015250610140610ba784828501610a4a565b61014083015250610160610bbd84828501610c1e565b6101608301525092915050565b600081519050610bd9816110f6565b92915050565b600081359050610bee8161110d565b92915050565b600081519050610c038161110d565b92915050565b600081519050610c1881611124565b92915050565b600081519050610c2d8161113b565b92915050565b600060208284031215610c4557600080fd5b6000610c5384828501610a35565b91505092915050565b600060208284031215610c6e57600080fd5b6000610c7c84828501610a4a565b91505092915050565b600060208284031215610c9757600080fd5b6000610ca584828501610a5f565b91505092915050565b60006101808284031215610cc157600080fd5b6000610ccf84828501610aac565b91505092915050565b600060208284031215610cea57600080fd5b6000610cf884828501610bf4565b91505092915050565b60008060408385031215610d1457600080fd5b6000610d2285828601610bdf565b9250506020610d3385828601610a35565b9150509250929050565b610d4681611026565b82525050565b610d55816110b6565b82525050565b6000610d68602e83611015565b91507f496e697469616c697a61626c653a20636f6e747261637420697320616c72656160008301527f647920696e697469616c697a65640000000000000000000000000000000000006020830152604082019050919050565b6000610dce602483611015565b91507f416d6f756e74206e6565647320746f2062652067726561746572207468616e2060008301527f30212121000000000000000000000000000000000000000000000000000000006020830152604082019050919050565b6000610e34601283611015565b91507f417070726f766520686173206661696c656400000000000000000000000000006000830152602082019050919050565b610e708161108e565b82525050565b6000602082019050610e8b6000830184610d3d565b92915050565b6000606082019050610ea66000830186610d3d565b610eb36020830185610d3d565b610ec06040830184610e67565b949350505050565b6000604082019050610edd6000830185610d3d565b610eea6020830184610e67565b9392505050565b6000606082019050610f066000830186610d3d565b610f136020830185610e67565b610f206040830184610d3d565b949350505050565b6000608082019050610f3d6000830187610d3d565b610f4a6020830186610e67565b610f576040830185610d3d565b610f646060830184610d4c565b95945050505050565b60006020820190508181036000830152610f8681610d5b565b9050919050565b60006020820190508181036000830152610fa681610dc1565b9050919050565b60006020820190508181036000830152610fc681610e27565b9050919050565b6000602082019050610fe26000830184610e67565b92915050565b6000604051905081810181811067ffffffffffffffff8211171561100b57600080fd5b8060405250919050565b600082825260208201905092915050565b60006110318261106e565b9050919050565b60008115159050919050565b60006fffffffffffffffffffffffffffffffff82169050919050565b600061ffff82169050919050565b600073ffffffffffffffffffffffffffffffffffffffff82169050919050565b6000819050919050565b600064ffffffffff82169050919050565b600060ff82169050919050565b60006110c182611060565b9050919050565b6110d181611026565b81146110dc57600080fd5b50565b6110e881611038565b81146110f357600080fd5b50565b6110ff81611044565b811461110a57600080fd5b50565b6111168161108e565b811461112157600080fd5b50565b61112d81611098565b811461113857600080fd5b50565b611144816110a9565b811461114f57600080fd5b5056fea26469706673582212203f9eb5bb534d70683496ccd1d5feb0ea7689ac095ef7d7686f9364609d3cbbb264736f6c634300060c0033",
  "immutableReferences": {},
  "source": "pragma solidity ^0.6.0;\r\npragma experimental ABIEncoderV2;\r\n\r\nimport \"@openzeppelin/contracts/proxy/Initializable.sol\";\r\nimport \"@openzeppelin/contracts/token/ERC20/ERC20.sol\";\r\nimport \"@openzeppelin/contracts/token/ERC20/SafeERC20.sol\";\r\nimport \"@aave/protocol-v2/contracts/interfaces/ILendingPoolAddressesProvider.sol\";\r\nimport \"@aave/protocol-v2/contracts/interfaces/ILendingPool.sol\";\r\n\r\ncontract LynxWallet is Initializable{\r\n    using SafeMath for uint256;\r\n\r\n    event LogDeposit(\r\n        address indexed _from,\r\n        address indexed _assetAddress,\r\n        uint256 _depositAmount\r\n    );\r\n\r\n    event LogWithdraw(\r\n        address indexed _to,\r\n        address indexed _assetAddress,\r\n        uint256 _withdrawAmount\r\n    );\r\n    // Kovan Dai address\r\n    address daiAddress = 0xFf795577d9AC8bD7D90Ee22b6C1703490b6512FD;\r\n\r\n    ILendingPoolAddressesProvider addressesProvider;\r\n    ILendingPool lendingPool;\r\n    function initialize(\r\n        address _lendingPoolAddressesProvider\r\n    ) external initializer {\r\n         addressesProvider = ILendingPoolAddressesProvider(_lendingPoolAddressesProvider);\r\n         lendingPool = ILendingPool(addressesProvider.getLendingPool());\r\n    }\r\n\r\n    function doDeposit(uint256 _amount, address _userAddress) external {\r\n        require(_amount > 0, \"Amount needs to be greater than 0!!!\");\r\n\r\n        // uint256 allowance = ERC20(daiAddress).allowance(_userAddress, address(this));\r\n        // require(allowance >= _amount, \"Please approve first\"); \r\n\r\n        //transfer user's DAI to contract\r\n        ERC20(daiAddress).transferFrom(_userAddress, address(this), _amount); \r\n        \r\n        address lendingPoolAddress = addressesProvider.getLendingPool();\r\n        require(ERC20(daiAddress).approve(lendingPoolAddress, _amount), \"Approve has failed\");\r\n\r\n        // Deposit into lending pool\r\n        lendingPool.deposit(daiAddress, _amount, address(this), 0);\r\n\r\n        emit LogDeposit(_userAddress, daiAddress, _amount);\r\n    }\r\n\r\n    function doWithdraw(uint256 _amount, address _userAddress) external {\r\n        // Withdraw from lending pool\r\n        lendingPool.withdraw(daiAddress, _amount, address(this));\r\n        ERC20(daiAddress).transfer(_userAddress, _amount); //send back to user\r\n        emit LogWithdraw(_userAddress, daiAddress, _amount);\r\n    }\r\n\r\n    function getUserBalance() external view returns (uint256) {\r\n        address aDAI = lendingPool.getReserveData(daiAddress).aTokenAddress;        \r\n        uint256 userBalance = ERC20(aDAI).balanceOf(address(this));\r\n        return userBalance;\r\n    }\r\n}",
  "sourcePath": "C:\\Users\\rbajo\\Lynx_Wallet_Test\\contracts\\LynxWallet.sol",
  "compiler": {
    "name": "solc",
    "version": "0.6.12+commit.27d51765.Emscripten.clang"
  },
  "schemaVersion": "3.2.3",
  "updatedAt": "2021-06-08T01:16:12.847Z",
  "networkType": "ethereum",
  "devdoc": {
    "kind": "dev",
    "methods": {},
    "version": 1
  },
  "userdoc": {
    "kind": "user",
    "methods": {},
    "version": 1
  }
}